:020000040000FA
:04000000D6EF0AF03D
:06125000C58AC5881200EA
:1012570001010101303000C58052EC09F01200C5D0
:101267008452EC09F01200C58652EC09F01200C551
:101277008252EC09F01200016E01C0C9FF52EC095D
:10128700F0120037EC09F028EC09F0C95012001EE3
:101297000E936EF19E818E818C818A12009EA657D5
:1012A700EF09F059EF09F052EF09F09E96120094FA
:1012B700869488280EC66E310EC86EC79CC78E9E50
:1012C70096A1961200016E9EA86CEF09F06EEF09C9
:1012D700F067EF09F09E9801C0ADFF1200046E00A1
:1012E7000E016E0350F4EC09F0010E016E0450F488
:1012F700EC09F01200036E2FEC09F0D00E3FEC0959
:10130700F003503FEC09F002503FEC09F033EC09D1
:10131700F01200948E949CAC9CAC8AAC98AC84ABD5
:101327008EAB9CAB88B896810EAF6E9D989E989EAB
:101337009A1200C282C2B2A3EF09F0A5EF09F09E8C
:10134700EF09F0C450046E036AC350056E066A03C2
:10135700500510016E04500610026E1200026E2F27
:10136700EC09F0A00E3FEC09F002503FEC09F03B0E
:10137700EC09F0A10E3FEC09F045EC09F0036E33E0
:10138700EC09F003501200026E2FEC09F0D00E3F6B
:10139700EC09F002503FEC09F03BEC09F0D10E3FAD
:1013A700EC09F045EC09F0036E33EC09F003501239
:1013B70000C29AC288C296C294C292C280C19AC120
:1013C70098C186C194C192C190000EC36EC3CFC4A9
:1013D700FFC094C084C094C08AC098C096C08E12C3
:1013E70000026E01B0FAEF09F0FDEF09F08282FE0C
:1013F700EF09F0829202C083FF82848294958E82E5
:101407008082928284829483BE0CEF0AF00EEF0AE8
:10141700F005EF0AF08290959E1200056E2FEC09F9
:10142700F0A00E3FEC09F005503FEC09F002503FE9
:10143700EC09F033EC09F00B0E046EB80E036E03E3
:1014470006D8A00406032806E10428D8A42EEF0A2C
:10145700F030EF0AF023EF0AF01200000EC7EC0994
:10146700F0046E04508009026E000E7EEC09F00253
:101477000EC7EC09F0046E04C002F0020E7EEC0900
:10148700F0930E026E070E7EEC09F0000EC7EC0912
:10149700F0046E04507F0B026E000E7EEC09F01212
:1014A7000063EC0EF0016E0128D8B45DEF0AF05F1F
:1014B700EF0AF06CEF0AF05450D8B465EF0AF06702
:1014C700EF0AF06CEF0AF0000E546E015077EF0A46
:1014D700F00128D8A472EF0AF074EF0AF076EF0A49
:1014E700F0010E546EFF0E12008EEF0AF002C0F6E6
:1014F700FF03C0F7FFF86A050EF76403D00800F58D
:101507005005D0F6CFE9FFF7CFEAFFEF5066EC09B9
:10151700F0024A032A02C0F6FF03C0F7FFF86A0584
:101527000EF76403D00800F55005D0F6CFE9FFF7B2
:10153700CFEAFFEF500009D8A4A4EF0AF0A6EF0AFC
:10154700F07AEF0AF0120056494557204C4F4700F2
:1015570000000000434C454152204C4F470000001B
:1015670000444F574E4C4F4144204C4F4700534582
:10157700542054494D4500000000004F4E00474E8F
:1015870000473100473200473300473400475200D5
:1015970020430030303A30303A30300030303A3083
:1015A700303A3030004E0EF66E150EF76E000EF81C
:1015B7006E00EE60F010EE5EF00900F5CFEEFFE58D
:1015C70050E150FAE1570EF66E120EF76E000EF864
:1015D7006E00EE52F010EE07F00900F5CFEEFFE5D2
:1015E70050E150FAE101EE00F0AA0EEE6AE806FDBE
:1015F700E100EE39F0190EEE6AE806FDE1000EF89B
:101607006E00015EEF0DF0000E016E0550F4EC095F
:10161700F024EF0BF0010E016E03C0F6FF04C0F7D4
:10162700FFF86A050EF76403D00800F55005D0F6F9
:10163700CFE9FFF7CFEAFFEF50F4EC09F0034A04D4
:101647002A03C0F6FF04C0F7FFF86A050EF7640324
:10165700D00800F55005D0F6CFE9FFF7CFEAFFEF46
:10166700500009D8A43AEF0BF03CEF0BF00EEF0B4C
:10167700F01200020EC7EC09F0396E010EC7EC0933
:10168700F03A6E000EC7EC09F03B6E39AC4EEF0B2B
:10169700F050EF0BF05CEF0BF039380F0B010B300C
:1016A7000F0001B56F39500F0B300FB66F66EF0B98
:1016B700F039380F0B030B300F0001B56F39500F9E
:1016C7000B300FB66F3A380F0B0F0B300FB86F3A5E
:1016D700500F0B300FB96F3B380F0B0F0B300FBB91
:1016E7006F3B500F0B300FBC6F1200F2EC0BF0DCAE
:1016F700EC09F04BEC09F08DEC09F0940E036E0445
:101707006ACA0E056E07EC0BF04EC001F0026A00C4
:101717000E046E0A0E036EFCEC0CF00150300F56EF
:101727006E4EC001F0026A000E046E0A0E036E468A
:10173700EC0CF00150300F576E560E036E046ACE54
:101747000E056E07EC0BF0F2EC0BF05BEC09F031D9
:10175700EC0AF0B50E036E046AC00E056E07EC0BBB
:10176700F01200BB0E036E2F0E046E800E056E077F
:10177700EC0BF0EC0E036E2F0E046EC70E056E0712
:10178700EC0BF0000E4A6E000E476E000E516E0015
:101797000E066E350E076E0C0E086E000E096E06ED
:1017A70006000E075A085A095A06280AE1072808A8
:1017B700E1082806E10928D8A4E4EF0BF0E6EF0BCF
:1017C700F0D3EF0BF0000E016E010EF4EC09F001FF
:1017D7000E466E000E4D6E000E4C6E1200000E95FA
:1017E7006E9450F80B946E8290C30E036ECD0EE884
:1017F7002EFED7032EFCD70000000E016E330EF429
:10180700EC09F01B0E036E9E0EE82EFED7032EFC8E
:10181700D700D0000E016E330EF4EC09F0A60EE8E7
:101827002EFED700D0000E016E330EF4EC09F00047
:10183700D000D00000000E016E020EF4EC09F0A6F5
:101847000EE82EFED700D0000E016E380EF4EC091C
:10185700F0A60EE82EFED700D0000E016E010EF4A2
:10186700EC09F0040E036E3E0EE82EFED7032EFCA5
:10187700D7000E016E0C0EF4EC09F0A60EE82EFE52
:10188700D700D01200000E066E02BE4FEF0CF04DCF
:10189700EF0CF055EF0CF0016C021ED8B0022A01D4
:1018A7000E066E04BE5CEF0CF05AEF0CF060EF0C06
:1018B700F0036C041ED8B0042A03500410D8B46790
:1018C700EF0CF069EF0CF08DEF0CF0010E056E7167
:1018D700EF0CF0D89003360436052A04AE76EF0CE9
:1018E700F078EF0CF06DEF0CF00350015C04500240
:1018F70058D8A081EF0CF083EF0CF087EF0CF003C2
:1019070050015E0450025AD89004320332052E78F3
:10191700EF0CF00650D8B493EF0CF095EF0CF0995C
:10192700EF0CF0016C021ED8B0022A01C001F002D0
:10193700C002F0120043C001F0026A000E046E0AF2
:101947000E036E46EC0CF001C009F002C00AF0432A
:10195700C001F0026A000E046E0A0E036EFCEC0C66
:10196700F00138F00B09103E6E42C001F0026A0028
:101977000E046E0A0E036E46EC0CF001C009F0026D
:10198700C00AF042C001F0026A000E046E0A0E039C
:101997006EFCEC0CF00138F00B09103D6E41C001F4
:1019A700F0026A000E046E0A0E036E46EC0CF0019C
:1019B700C009F002C00AF041C001F0026A000E043B
:1019C7006E0A0E036EFCEC0CF00138F00B09103CAC
:1019D7006E3EC002F0020E7EEC09F03DC002F0013F
:1019E7000E7EEC09F03CC002F0000E7EEC09F0120E
:1019F70000000E066E04BE05EF0DF003EF0DF00BB1
:101A0700EF0DF0036C041ED8B0042A010E066E0217
:101A1700BE12EF0DF010EF0DF018EF0DF0016C0294
:101A27001ED8B0022A010E061A000E086E000E0715
:101A37006E03500410D8B423EF0DF025EF0DF04DD1
:101A4700EF0DF0010E056E2DEF0DF0D89003360463
:101A570036052A04AE32EF0DF034EF0DF029EF0D05
:101A6700F0D890073608360350015C04500258D866
:101A7700A040EF0DF042EF0DF047EF0DF0035001DE
:101A87005E0450025A0780D89004320332052E3480
:101A9700EF0DF00650D8B453EF0DF055EF0DF05998
:101AA700EF0DF0076C081ED8B0082A07C001F00830
:101AB700C002F0120079EC0BF03DEC0BF054EC0A8D
:101AC700F0506E0C0E5018D8A46CEF0DF06EEF0DA1
:101AD700F0C3EF0DF04650D8B474EF0DF076EF0D6C
:101AE700F086EF0DF04604D8B47CEF0DF07EEF0DD5
:101AF700F082EF0DF0010E466E84EF0DF0000E46FA
:101B07006E010E556E000E4D6E000E4C6E000E4BA4
:101B17006E000E016E010EF4EC09F0C3EF0DF08CB0
:101B27000E036E2F0E046E800E056E07EC0BF0721F
:101B3700EC11F060EF0DF022EC13F060EF0DF0C840
:101B47000E036E2F0E046E800E056E07EC0BF078F9
:101B5700EC0FF060EF0DF0B5EC0BF060EF0DF0BBA4
:101B6700EC10F060EF0DF0F60E036E2F0E046E8092
:101B77000E056E07EC0BF038EC14F060EF0DF04635
:101B870050000AD8B493EF0DF0010AD8B49FEF0DB7
:101B9700F0030AD8B4A3EF0DF0010AD8B4AFEF0DE4
:101BA700F0070AD8B4B3EF0DF0010AD8B4B7EF0DB8
:101BB700F060EF0DF000EF00F030343134376E375E
:101BC70050D8A4E9EF0DF0EBEF0DF0F5EF0DF000B5
:101BD7000E2E6E000E2F6E000E306E000E316E62EE
:101BE700EF0EF02EC032F02FC033F030C034F0319A
:101BF700C035F0200E05EF0EF0D890353234323371
:101C0700323232E82E00EF0EF03250366E308EFF51
:101C17000E2E16FF0E2F16FF0E3016000E311696DB
:101C27000E375E37BE1CEF0EF01AEF0EF032EF0ED6
:101C3700F03750800A970FD8B024EF0EF026EF0E3A
:101C4700F028EF0EF0EBEF0DF0D890313230322F55
:101C5700322E32373E28EF0EF04AEF0EF01F0E37C6
:101C67006438EF0EF03AEF0EF042EF0EF0EBEF0DA7
:101C7700F0D8902E362F363036313637063750D8D3
:101C8700A448EF0EF04AEF0EF03CEF0EF03650D8B6
:101C9700B450EF0EF052EF0EF05AEF0EF0311E3047
:101CA7001E2F1E2E6C000E2F22302231222EC02E08
:101CB700F02FC02FF030C030F031C031F01200816A
:101CC7009A818E818C81B26BEF0EF06DEF0EF07002
:101CD700EF0EF0010EE5EF0EF081B475EF0EF07721
:101CE700EF0EF07AEF0EF0040EE5EF0EF081B67FFF
:101CF700EF0EF081EF0EF084EF0EF0070EE5EF0E1A
:101D0700F081B889EF0EF08BEF0EF08EEF0EF00A30
:101D17000EE5EF0EF0819C818E818A81B296EF0EDF
:101D2700F098EF0EF09BEF0EF0020EE5EF0EF0814C
:101D3700B4A0EF0EF0A2EF0EF0A5EF0EF0050EE542
:101D4700EF0EF081B6AAEF0EF0ACEF0EF0AFEF0E8C
:101D5700F0080EE5EF0EF081B8B4EF0EF0B6EF0E17
:101D6700F0B9EF0EF00B0EE5EF0EF0819E818C813E
:101D77008A81B2C1EF0EF0C3EF0EF0C6EF0EF0038B
:101D87000EE5EF0EF081B4CBEF0EF0CDEF0EF0D0F5
:101D9700EF0EF0060EE5EF0EF081B6D5EF0EF0D799
:101DA700EF0EF0DAEF0EF0090EE5EF0EF081B8DF77
:101DB700EF0EF0E1EF0EF0E4EF0EF00C0EE5EF0E94
:101DC700F0FF0E1200B5C002F0475011EC0AF047C1
:101DD7002AB6C002F0475011EC0AF0472AB8C002F1
:101DE700F0475011EC0AF0472AB9C002F0475011EA
:101DF700EC0AF0472ABBC002F0475011EC0AF04743
:101E07002ABCC002F0475011EC0AF0472A4F500392
:101E17000DF350940FD96EDA6ADF50026E475011F6
:101E2700EC0AF0472A4F50030DF350950FD96EDA9D
:101E37006ADF50026E475011EC0AF0472A56C0027B
:101E4700F0475011EC0AF0472A57C002F0475011EB
:101E5700EC0AF0472A640E4718D8A435EF0FF0377D
:101E6700EF0FF039EF0FF0000E476E0A0E4A603F92
:101E7700EF0FF041EF0FF042EF0FF04A2A512A0A15
:101E87000E516449EF0FF04BEF0FF062EF0FF0F9CF
:101E97000E516051EF0FF053EF0FF062EF0FF0515B
:101EA700C001F0026A000E046E0A0E036E46EC0CC7
:101EB700F001500A0DF3CF49F073EF0FF0FA0E510E
:101EC70018D8A469EF0FF06BEF0FF071EF0FF00068
:101ED7000E496E000E516E73EF0FF0000E496E0142
:101EE7000E536E000E456E12004A50D8A47EEF0FB7
:101EF700F080EF0FF0B9EF0FF0000E016E010EF456
:101F0700EC09F0E10E036E2F0E046E800E056E07CE
:101F1700EC0BF0AD0E036E2F0E046EC30E056E07AD
:101F2700EC0BF0000E0D6E350E0E6E0C0E0F6E00E4
:101F37000E106E0D06000E0E5A0F5A105A0D280A73
:101F4700E10E2808E10F2806E11028D8A4AEEF0F0C
:101F5700F0B0EF0FF09DEF0FF0010E466E000E018F
:101F67006E010EF4EC09F00EEF10F04A50D8B4BF32
:101F7700EF0FF0C1EF0FF00EEF10F05004D8A4C729
:101F8700EF0FF0C9EF0FF0E4EF0FF0FF0E4A240850
:101F97006E096AFF0E092245500A6E0B6A08500A3D
:101FA7005C0B50800A0C6E0950800A0C58D8B0DFC1
:101FB700EF0FF0E1EF0FF0F6EF0FF0452AF6EF0F16
:101FC700F0020E5018D8A4EBEF0FF0EDEF0FF0F67C
:101FD700EF0FF04550D8B4F3EF0FF0F5EF0FF0F631
:101FE700EF0FF045065304D8A4FCEF0FF0FEEF0FF8
:101FF700F002EF10F00FEC10F0000E536E45501189
:102007000D000EF324036E010EF420046EC00E05BE
:102017006E07EC0BF01200000E066EB1EF10F00029
:102027000E076E0750D8A41BEF10F01DEF10F0300D
:10203700EF10F00650110D000EF324046E010EF49C
:1020470020056E07500424D96E000E0520DA6E06AF
:1020570050300FDF6E93EF10F0040E0718D8B43727
:10206700EF10F039EF10F042EF10F0070E0718D815
:10207700A440EF10F042EF10F054EF10F0065011AB
:102087000D000EF324046E010EF420056E075004B4
:1020970024D96E000E0520DA6E3A0EDF6E93EF102C
:1020A700F00704D8B45AEF10F05CEF10F06EEF10A1
:1020B700F00A0E0718D8B463EF10F065EF10F06E52
:1020C700EF10F00D0E0718D8A46CEF10F06EEF109C
:1020D700F080EF10F00650110D000EF324046E018E
:1020E7000EF420056E07500424D96E000E0520DA81
:1020F7006E200EDF6E93EF10F00650110D000EF3F9
:1021070024046E010EF420056E07500424D96E00D6
:102117000E0520DA6E4950B2EC09F0DF6E492A0746
:102127002A0F0E07649AEF10F09CEF10F015EF10CE
:10213700F00650110D100EF324D96E010EF420DABB
:102147006EDF6A640E4918D8A4ACEF10F0AEEF103A
:10215700F0B0EF10F0000E496E062A4A50065CD820
:10216700A0B8EF10F0BAEF10F013EF10F012004A1A
:1021770050D8B4C1EF10F0C3EF10F029EF11F053AE
:1021870004D8A4C9EF10F0CBEF10F0CFEF10F00F89
:10219700EC10F0000E536E1F0E026E2F0E036E78BA
:1021A700EC0AF0380E026E2F0E036E78EC0AF01F61
:1021B7000E026E2F0E036E78EC0AF0680E026E2F79
:1021C7000E036E78EC0AF01F0E026E2F0E036E7868
:1021D700EC0AF09D0E036E2F0E046E800E056E073F
:1021E700EC0BF07B0E036E2F0E046EC00E056E0710
:1021F700EC0BF0000E0C6E12EF11F00C50110D00ED
:102207000EF324026E010EF420036E78EC0AF01C24
:102217000E026E2F0E036E78EC0AF00C2A4A500C51
:102227005CD8A019EF11F01BEF11F001EF11F01FAF
:102237000E026E2F0E036E78EC0AF01C0E026E2F44
:102247000E036E78EC0AF04BEF11F01F0E026E2FA3
:102257000E036E78EC0AF0510E026E2F0E036E78A5
:10226700EC0AF0050E026E2F0E036E78EC0AF0E111
:102277000E036E2F0E046E800E056E07EC0BF0D565
:102287000E036E2F0E046EC50E056E07EC0BF000E5
:102297000E086E350E096E0C0E0A6E000E0B6E08D8
:1022A70006000E095A0A5A0B5A08280AE109280893
:1022B700E10A2806E10B28D8A464EF11F066EF11B4
:1022C700F053EF11F0000E016E010EF4EC09F0016E
:1022D7000E466E000E4D6E000E4C6E12004450D826
:1022E700A478EF11F07AEF11F0FBEF11F0020E5026
:1022F70018D8A481EF11F083EF11F094EF11F006D5
:102307000E4F6089EF11F08BEF11F090EF11F04F46
:102317002AE6EC0EF0BAEF11F0060E4F6EBAEF1187
:10232700F0030E5018D8A49BEF11F09DEF11F0ACFD
:10233700EF11F0010E4F64A3EF11F0A5EF11F0A814
:10234700EF11F04F068CEF11F0010E4F6EBAEF113F
:10235700F05004D8A4B2EF11F0B4EF11F0BAEF11B6
:10236700F0010E446E070E4F6E8CEF11F0B80E1988
:102377006E1E0E1A6E250E1B6E410E1C6E9DEC090D
:10238700F001C007F002C008F0096A0A6A000E48A7
:10239700EC12F007C015F008C016F009C017F00AD4
:1023A700C018F0B5EC15F015C02EF016C02FF017B9
:1023B700C030F018C031F0E0EC0DF02E504E6E4EEC
:1023C700C001F0026A000E046E0A0E036EFCEC0CEC
:1023D700F00150300F566E4EC001F0026A000E0435
:1023E7006E0A0E036E46EC0CF00150300F576E4428
:1023F70004D8A401EF12F003EF12F01BEF12F00262
:102407000E5018D8B40AEF12F00CEF12F015EF12B5
:10241700F0030E5018D8A413EF12F015EF12F01BAB
:10242700EF12F0010E4F6EE6EC0EF0000E446EB5A3
:102437000E036E046AC00E056E07EC0BF04F5003D7
:102447000DF350940F386E38C003F0046ACA0E05B6
:102457006E07EC0BF0560E036E046ACE0E056E0780
:10246700EC0BF00B0E5018D8A43CEF12F03EEF1215
:10247700F047EF12F0010E466E010E556E000E0189
:102487006E010EF4EC09F012000F6E0F50D8B44F26
:10249700EF12F051EF12F073EF12F00ABE58EF127D
:1024A700F056EF12F073EF12F007C00BF008C00CF4
:1024B700F009C00DF00AC00EF00B1E0C1E0D1E0E0B
:1024C7001E0B2A000E0C220D220E220BC011F00C3F
:1024D700C012F00DC013F00EC014F07BEF12F0071E
:1024E700C011F008C012F009C013F00AC014F007B9
:1024F70050081009100A10D8A484EF12F086EF12C2
:10250700F090EF12F0000E076E000E086E000E0935
:102517006E000E0A6E21EF13F0960E106E9AEF12F0
:10252700F0102AD8901432133212321132000E11E1
:10253700140B6E000E12140C6E000E13140D6EFEAB
:102547000E14140E6E0B500C100D100E10D8A4AFF5
:10255700EF12F0B1EF12F094EF12F0BFEF12F0109C
:102567002A010E1126000E122213221422D89014CB
:1025770032133212321132000E11140B6E000E128A
:10258700140C6E000E13140D6EFF0E14140E6E0B4A
:10259700500C100D100E10D8A4D4EF12F0D6EF1275
:1025A700F0B3EF12F0DEEF12F01006D890113612EA
:1025B700361336143613BEE3EF12F0E5EF12F0EDE3
:1025C700EF12F0020E1060EBEF12F0EDEF12F0D801
:1025D700EF12F010B0F2EF12F0F4EF12F0F5EF1285
:1025E700F0139ED890103210C00BF00C6A0D6A0ED3
:1025F7006A0BC00EF00D6A0C6A0B6A0B5011120CB5
:102607005012120D5013120E5014120F50D8B40F4F
:10261700EF13F011EF13F019EF13F00ABE18EF13D1
:10262700F016EF13F019EF13F0148E11C007F01224
:10263700C008F013C009F014C00AF012004D50D8BA
:10264700A428EF13F02AEF13F031EF13F0800E03F5
:102657006E2A0E72EC09F03EEF13F04D04D8A43742
:10266700EF13F039EF13F03EEF13F0C00E036E2AAD
:102677000E72EC09F04C500D0DF350600F066E060C
:10268700C003F0046A810E056E07EC0BF04C500D89
:102697000DF3506D0F066E06C003F0046AC10E05F8
:1026A7006E07EC0BF0020E5018D8A45DEF13F05F25
:1026B700EF13F082EF13F04D50D8A465EF13F067D6
:1026C700EF13F06AEF13F04D2A7BEF13F04D04D8A8
:1026D700A470EF13F072EF13F07BEF13F0020E4CC0
:1026E7006078EF13F07AEF13F07BEF13F04C2A00CA
:1026F7000E016E010EF4EC09F035EF14F05004D81A
:10270700A488EF13F08AEF13F0ADEF13F04D50D814
:10271700B490EF13F092EF13F095EF13F04D06A678
:10272700EF13F04D50D8A49BEF13F09DEF13F0A6D5
:10273700EF13F04C50D8B4A3EF13F0A5EF13F0A6A6
:10274700EF13F04C06000E016E010EF4EC09F035A4
:10275700EF14F00B0E5018D8A4B4EF13F0B6EF1324
:10276700F035EF14F04B04D8A4BCEF13F0BEEF1311
:10277700F035EF14F0000E016E010EF4EC09F04D88
:1027870050D8A4C9EF13F0CBEF13F0D7EF13F04CE9
:1027970050D8A4D1EF13F0D3EF13F0D7EF13F00213
:1027A7000E466E35EF14F04D50D8A4DDEF13F0DF71
:1027B700EF13F0E7EF13F04C04D8B4E5EF13F0E7AD
:1027C700EF13F0F7EF13F04D04D8A4EDEF13F0EF8C
:1027D700EF13F0FBEF13F04C50D8A4F5EF13F0F71D
:1027E700EF13F0FBEF13F0030E466E35EF14F04DC9
:1027F70004D8A401EF14F003EF14F00BEF14F04C1E
:1028070004D8B409EF14F00BEF14F01CEF14F04DDB
:1028170050D8A411EF14F013EF14F020EF14F002C6
:102827000E4C18D8A41AEF14F01CEF14F020EF1474
:10283700F0040E466E35EF14F04D04D8A426EF14BD
:10284700F028EF14F035EF14F0020E4C18D8A42F2F
:10285700EF14F031EF14F035EF14F0050E466E3536
:10286700EF14F0010E4B6E12005004D8A43EEF1483
:10287700F040EF14F088EF14F0020E4018D8A44788
:10288700EF14F049EF14F058EF14F03B0E41604F8E
:10289700EF14F051EF14F054EF14F0412AFFEF1446
:1028A700F0000E416EFFEF14F04004D8A45EEF1461
:1028B700F060EF14F06FEF14F03B0E426066EF1418
:1028C700F068EF14F06BEF14F0422AFFEF14F000FA
:1028D7000E426EFFEF14F04050D8A475EF14F07756
:1028E700EF14F086EF14F0170E43607DEF14F07FBE
:1028F700EF14F082EF14F0432AFFEF14F0000E43B9
:102907006EFFEF14F0FFEF14F0020E5018D8A48FEB
:10291700EF14F091EF14F0EEEF14F0020E40609711
:10292700EF14F099EF14F09CEF14F0402A9EEF1487
:10293700F0000E406E43C001F0026A000E046E0AFA
:102947000E036EFCEC0CF00150300F0001AC6F432E
:10295700C001F0026A000E046E0A0E036E46EC0C0C
:10296700F00150300F0001AD6F42C001F0026A0064
:102977000E046E0A0E036EFCEC0CF00150300F00D3
:1029870001AF6F42C001F0026A000E046E0A0E0327
:102997006E46EC0CF00150300F0001B06F41C001E2
:1029A700F0026A000E046E0A0E036EFCEC0CF001D6
:1029B70050300F0001B26F41C001F0026A000E04EF
:1029C7006E0A0E036E46EC0CF00150300F0001B397
:1029D7006FFFEF14F00B0E5018D8A4F5EF14F0F7B3
:1029E700EF14F0FFEF14F09EEC0CF0000E4D6E00AC
:1029F7000E4C6E000E466E5504D8A405EF15F00771
:102A0700EF15F01CEF15F00001B5510A0DF350B6A4
:102A170025F00F436EB8510A0DF350B925F00F4258
:102A27006EBB510A0DF350BC25F00F416E000E55D9
:102A37006E3F2A640E3F18D8A424EF15F026EF1531
:102A4700F076EF15F043C001F0026A000E046E0A3B
:102A57000E036EFCEC0CF00150300F0001AC6F431D
:102A6700C001F0026A000E046E0A0E036E46EC0CFB
:102A7700F00150300F0001AD6F42C001F0026A0053
:102A87000E046E0A0E036EFCEC0CF00150300F00C2
:102A970001AF6F42C001F0026A000E046E0A0E0316
:102AA7006E46EC0CF00150300F0001B06F41C001D1
:102AB700F0026A000E046E0A0E036EFCEC0CF001C5
:102AC70050300F0001B26F41C001F0026A000E04DE
:102AD7006E0A0E036E46EC0CF00150300F0001B386
:102AE7006FADEF15F0C80E3F18D8A47DEF15F07F36
:102AF700EF15F0ADEF15F04050D8A485EF15F0872E
:102B0700EF15F08EEF15F0200E0001AC6F200EAD23
:102B17006FABEF15F04004D8A494EF15F096EF15BE
:102B2700F09DEF15F0200E0001AF6F200EB06FABD8
:102B3700EF15F0020E4018D8A4A4EF15F0A6EF1574
:102B4700F0ABEF15F0200E0001B26F200EB36F004F
:102B57000E3F6EAC0E036E046AC00E056E07EC0BDB
:102B6700F012001850800B256E185018242C6E1781
:102B7700AEC0EF15F0C2EF15F0C3EF15F02C802CA7
:102B870050D8B4C9EF15F0CBEF15F0E0EF15F02CE6
:102B970028D8A4D1EF15F0D3EF15F0DBEF15F0002F
:102BA7000E156E000E166E000E176E000E186E17BD
:102BB7008E000E186EE8EF15F0000E156E000E165B
:102BC7006E000E176E000E186E1C50800B251A1C17
:102BD700501C242D6E1BAEF3EF15F0F5EF15F0F634
:102BE700EF15F02D802D50D8B4FCEF15F0FEEF1542
:102BF700F013EF16F02D28D8A404EF16F006EF1601
:102C0700F00EEF16F0000E196E000E1A6E000E1B76
:102C17006E000E1C6E1B8E000E1C6E1BEF16F00056
:102C27000E196E000E1A6E000E1B6E000E1C6E192A
:102C3700501A101B101C10D8A424EF16F026EF16FC
:102C4700F03EEF16F0000E156E000E166E000E1712
:102C57006E000E186E800E17127F0E181225501870
:102C67001215C015F016C016F017C017F018C018C7
:102C7700F081EF17F02C50D8A444EF16F046EF166A
:102C8700F050EF16F0000E156E000E166E000E17C0
:102C97006E000E186E81EF17F02D502CC01DF01E20
:102CA7006A1D5E000E1E5A7F0E1D24266E000E1E24
:102CB70020276E15C021F016C022F017C023F01888
:102CC700C024F0000E156E000E166E000E176E0073
:102CD7000E186E000E286E000E296E000E2A6E006A
:102CE7000E2B6E000E2D6EB1EF16F02D50D8B47F5F
:102CF700EF16F081EF16F098EF16F0D890213622F4
:102D07003623362436D89015361636173618362B0E
:102D1700AE90EF16F092EF16F093EF16F01580D8FD
:102D270090283629362A362B361950215C1A50221C
:102D3700581B5023581C502458D8A0A5EF16F0A7AD
:102D4700EF16F0B0EF16F02B8C1950215E1A5022B7
:102D57005A1B50235A1C50245A2D2A190E2D64B77A
:102D6700EF16F0B9EF16F079EF16F0215022102385
:102D7700102410D8B4C2EF16F0C4EF16F0DCEF162B
:102D8700F02880DCEF16F0D890153616361736186F
:102D9700362BAED1EF16F0D3EF16F0D4EF16F015B1
:102DA70080D890283629362A362B362606D8A027EB
:102DB7000617AEE1EF16F0E3EF16F0C7EF16F000D7
:102DC7000E2D6E2BAEEAEF16F0ECEF16F010EF17A4
:102DD700F0FF0E28141D6EFF0E29141E6EFF0E2A1B
:102DE700141F6E7F0E2B14206E1D501E101F1020F7
:102DF70010D8B401EF17F003EF17F007EF17F00142
:102E07000E2D6E10EF17F015A00CEF17F00EEF1741
:102E1700F010EF17F003EF17F02D50D8B416EF1797
:102E2700F018EF17F03CEF17F0010E1526000E16FD
:102E3700221722182218A023EF17F025EF17F03CCE
:102E4700EF17F015C01DF016C01EF017C01FF018C1
:102E5700C020F0203420321F321E321D321DC01513
:102E6700F01EC016F01FC017F020C018F0264A2722
:102E77002A27BE47EF17F0275008E12628D8A04792
:102E8700EF17F049EF17F054EF17F0000E276E26F3
:102E970068000E156E000E166E000E176E000E18E7
:102EA7006E27BE61EF17F0275006E12604D8B05F02
:102EB700EF17F061EF17F06FEF17F0000E276E00B6
:102EC7000E266E000E156E000E166E000E176E00A3
:102ED7000E186E000E256E26C02CF02CA076EF176C
:102EE700F078EF17F07BEF17F0178E7CEF17F017DE
:102EF7009ED8902C30186E32EF16F01200002D2D50
:102F07002D2D2D2D2D2D2D2D2D2D2D2D2D2D2D2DEA
:102F17002D2D2D2D0A0A0D002D2D2D2D2D2D2D2D6D
:102F27002D2D2D2D2D2D2D2D2D2D2D2D2D2D0A0D0D
:102F3700005072696E74696E6720746865206C6FE3
:102F470067732E2E2E2E2E0A0D004E6F206C6F6784
:102F57007320617661696C61626C652E2E2E0A0D95
:102F670000232054494D452020202020455620533A
:102F7700500A0D005448524F554748205541525466
:102F87002E2E2E2E0054494D45202020202020454E
:102F9700562020535000444F574E4C4F4144494E02
:102FA700472E2E2E2E00444953504C4159203A2883
:102FB7002E2E2E00434C454152494E47205448453A
:102FC70000232056494557204C4F47203A00444F8D
:102FD700574E4C4F4144203A28004E4F204C4F4704
:102FE7005320544F004C4F47532E2E2E2E2E005356
:092FF70045542054494D450000E9
:020000040020DA
:08000000FFFFFFFFFFFFFFFF00
:020000040030CA
:0E000000FF071F1FFF8285FF0FC00FE00F409C
:00000001FF
